:020000040800F2
:1000000080050020350100083D0100083F0100087F
:1000100041010008430100084501000800000000FC
:100020000000000000000000000000004701000880
:1000300049010008000000004B0100084D010008C4
:100040004F0100084F0100084F0100084F01000850
:100050004F0100084F0100084F0100085504000837
:100060004F0100084F0100084F0100084F01000830
:100070004F0100084F0100084F0100084F01000820
:100080004F0100084F0100084F0100080000000068
:100090000000000000000000000000004F01000808
:1000A0004F0100084F0100084F0100084F010008F0
:1000B0004F0100084F0100084F0100084F010008E0
:1000C0004F0100084F0100084F0100084F010008D0
:1000D0004F0100084F0100084F0100084F010008C0
:1000E0004F0100084F0100084F0100080000000008
:1000F0000000000000000000000000000000000000
:1001000000000000000000000000000000000000EF
:1001100000000000000000004F0100084F0100082F
:10012000DFF80CD000F058F80048004781210008A3
:10013000800500200648804706480047FEE7FEE7A6
:10014000FEE7FEE7FEE7FEE7FEE7FEE7FEE7FEE787
:100150001D1A00082101000810B5431A934209D264
:100160008318881803E010F8011D03F8011D521EC2
:10017000F9D210BD40EA01039B0703D009E008C98A
:10018000121F08C0042AFAD203E011F8013B00F85C
:10019000013B521EF9D210BDD2B201E000F8012B92
:1001A000491EFBD270470022F6E710B513460A46F7
:1001B00004461946FFF7F0FF204610BD30B504464F
:1001C0000020034600E05B1C934203D2E05CCD5C60
:1001D000401BF8D030BD0000064C074D06E0E0683B
:1001E00040F0010394E8070098471034AC42F6D37E
:1001F000FFF79AFFD0360008F0360008704700007D
:1002000008B501F095F800F029F800F03FF801F08A
:10021000BDFBAA20009000BF9DF8000008B9012096
:1002200000E0002020B1034A6C2103A001F0B0FCE3
:1002300000BF08BD643500082E2E5C2E2E5C2E2ECD
:100240005C2E2E5C2E2E5C436F6D706F6E656E742F
:10025000735C6273705C6273702E630010B5012171
:10026000072000F0E7F8012141F21D0001F050F8ED
:100270004FF4E131014800F08BF810BD0038014027
:1002800000B540F21C4001F057FE00BD00B500F083
:1002900003F8FFF7F5FF00BD00B541F2182001F0AB
:1002A0004BFE41F21D2001F047FE00BF07480068E9
:1002B00020F480700549086000BF00BF0846006850
:1002C00020F40050086000BF00BD00000C0C01408D
:1002D00010B586B004461D48844204D10121801423
:1002E00001F016F80EE01A48844204D101210014EE
:1002F00000F0FEFF06E000BF164A40F21F1116A0F4
:1003000001F046FC0020ADF804004FF48270ADF817
:1003100006000020ADF80800ADF80A00ADF80C00AA
:100320004FF40070ADF80E000820ADF8100000206A
:10033000ADF81200ADF8140001A9204601F080FAD2
:100340000121204601F070FA06B010BD00300140D6
:10035000003800406D3500082E2E5C2E2E5C2E2EAF
:100360005C2E2E5C2E2E5C436F6D706F6E656E740E
:10037000735C6273705C626F617264735C53544D42
:1003800033325C6273705F626F6172642E6300006F
:100390007FB504460D461A48844204D101218803E2
:1003A00000F0B6FF0EE01748844204D10121480452
:1003B00000F09EFF06E01448844203D10121880426
:1003C00000F096FF41F6023001F0B6FD40F2034026
:1003D00001F0B2FD00950020ADF80400ADF8060074
:1003E000ADF80800ADF80C000C20ADF80A00694625
:1003F000204601F05DFB0121204601F03FFB7FBD5F
:1004000000380140004400400048004001460248D6
:100410000160006870470000003002400148006839
:100420007047000000300240012001498860704799
:100430000030024029B1064A52680243044B5A6018
:1004400004E0034A52688243014B5A60704700003F
:10045000002004E010B511480078C0B110480068D1
:1004600000F00200C0B10E481430006800F0020035
:1004700090B102200A49143108600948006820F050
:1004800002000749086000200449087004E005A044
:1004900001F050FC00F0C6F810BD0000180000206C
:1004A000000401402D2D20494E54202D2D00000028
:1004B000002123498279002A3AD00A46126803684B
:1004C0009A430B461A600A1D126803689A430B1D73
:1004D0001A60027911440A6803681A430A60184ACC
:1004E0000832126803689A43154B08331A601A1DC4
:1004F000126803689A43124B0C331A604279102A2F
:100500000ED11A1F126803681A430D4B08331A6084
:100510001A1D126803681A43094B0C331A600DE068
:100520000749427911440A6803681A430A6005E0E2
:10053000027911440A6803689A430A607047000010
:100540000004014030B500228B071C0F0F2303FA73
:1005500004F20B4B8C1053F824309343084C8D104D
:1005600044F8253023468C1053F824308C07240F90
:1005700000FA04F42343024C8D1044F8253030BDBA
:100580000800014010B5044605E042F2107000F08A
:10059000CDFC601E84B2002CF7D110BD10B500BF99
:1005A0000A4800780A490978884205D1094A40F288
:1005B000991109A001F0ECFA00BF0120154908705B
:1005C0000721084601F0CAFE10BD000014000020FB
:1005D00079350008813600082E2E5C2E2E5C2E2EDA
:1005E0005C2E2E5C2E2E5C436F6D706F6E656E748C
:1005F000735C6D7266695C726164696F732F636F9F
:100600006D6D6F6E2F6D7266695F663166322E6337
:10061000000000001300002001480078704700002F
:100620000A00002010B50948006800F0020058B127
:1006300006481430006800F0020028B10220034987
:100640001431086000F04CFD10BD000000040140B2
:1006500070B530217A48FFF7A6FD40F2114001F055
:100660006BFC01F01FFE00BF00F080FA28B9754A4C
:100670004FF4D17174A001F08BFA00BF00F084FA3E
:100680000A2000F053FC00F079FA282000F04EFC1C
:1006900000F07AFA7B4800684FF47A71B0FBF1F50C
:1006A0000BE000BF2800A5F1010505D1654A4FF414
:1006B000D97165A001F06CFA00BF062001F051FC71
:1006C0000028EED1302001F08FFB01F083FB6D4854
:1006D00000684FF47A71B0FBF1F50BE000BF280021
:1006E000A5F1010505D1574A40F2BD1156A001F010
:1006F0004FFA00BF062001F034FC0028EED100F0D4
:100700003DFAA521062001F029FE00BF062001F0D8
:10071000E5FDA52805D04B4A4FF4E6714AA001F04B
:1007200037FA00BF00BF302001F0D8FD28B1454A9C
:100730004FF4E87144A001F02BFA00BF00BF312054
:1007400001F0CCFD042805DA3E4A40F2D1113EA06A
:1007500001F01EFA00BF00240AE04B4A02EB4402FB
:100760005178494A12F8140001F0F8FD601CC4B237
:100770001F2CF2D3022045490870002000F00AFA2D
:10078000022000F045FA342001F044FD40F21454F8
:1007900000BF382001F0A2FD00F0500000B107E0DA
:1007A000402000F0C3FBA4F1400004B2002CF0DCB8
:1007B00000BF00240AE036480678342001F08EFDA0
:1007C00066F35F0032490870601CC4B2102CF2DB83
:1007D0002F48007840F080002D49087000F046FC5A
:1007E00040F2831016232B4C1C4104FB00F12A4AD3
:1007F000B2FBF1F4641D0A26B4FBF6F43234274E42
:10080000348034462488641104EB4406C6EBC414D7
:10081000FA2606EBC404224E34802E210848FFF746
:10082000C2FC07480021C1850621022001F096FD87
:1008300001F08CFA02201B49086062B670BD00000E
:1008400088000020C23500082E2E5C2E2E5C2E2E35
:100850005C2E2E5C2E2E5C436F6D706F6E656E7419
:10086000735C6D7266695C726164696F732F666137
:100870006D696C79312F6D7266695F726164696F41
:100880002E630000800000207D3500080A00002053
:100890000B00002080BA8C0100EB41000E0000200C
:1008A00010000020140401400348007810B101201A
:1008B00002490870704700000D0000200C00002065
:1008C00070B504463B2001F0A5FC2078401CC5B261
:1008D0002946204601F076FD70BD000004480078EE
:1008E0006D2148434330024908700846007870473C
:1008F0000B00002010B50446302202492046FFF7C5
:100900002BFC10BD8800002070B51A48058800BF78
:10091000EFF3108000F0010472B672B600BF012040
:100920001549087000BF04B962B600BF0CE042F27E
:10093000107000F061FB012001F04AF80F480078C8
:1009400000B103E0681E85B2002DF0D100BF00BFEA
:10095000EFF3108000F0010472B672B600BF002001
:10096000064908700449087000BF04B962B600BFA8
:1009700070BD00000E0000200D0000200C000020C3
:1009800070B500BF12480078032805D0114A40F224
:10099000C15111A001F0FCF800BF40F2145400BF97
:1009A000382001F09BFC00F0500000B107E040202F
:1009B00000F0BCFAA4F1400004B2002CF0DC00BF4F
:1009C000342001F08BFC0546284600F097FA70BDF4
:1009D0000A000020023600082E2E5C2E2E5C2E2EE1
:1009E0005C2E2E5C2E2E5C436F6D706F6E656E7488
:1009F000735C6D7266695C726164696F732F6661A6
:100A00006D696C79312F6D7266695F726164696FAF
:100A10002E63000030B505461048007808B9002064
:100A200030BD0023002400210EE06A5C0C48405CCD
:100A3000904201D1581CC3B20A48405C904201D197
:100A4000601CC4B2481CC1B20429EEDB042C01D0E6
:100A5000042B01D10020E3E70120E1E7130000208F
:100A6000140000207935000810B5012001F092FD36
:100A7000040005D0A01CFFF73DFF204601F00EFA50
:100A800010BD000010B500BF0A480078012805D14C
:100A9000094A4FF4A56109A001F07AF800BF0548A2
:100AA0000078032804D100F0E1FA0220014908701F
:100AB00010BD00000A000020F63500082E2E5C2E26
:100AC0002E5C2E2E5C2E2E5C2E2E5C436F6D706F76
:100AD0006E656E74735C6D7266695C726164696F79
:100AE000732F66616D696C79312F6D7266695F7203
:100AF0006164696F2E63000010B500BF0A4800787A
:100B0000012805D1094A40F2F24109A001F040F85C
:100B100000BF05480078032804D00320024908706C
:100B200000F0C6FA10BD00000A000020EC350008F5
:100B30002E2E5C2E2E5C2E2E5C2E2E5C2E2E5C43DA
:100B40006F6D706F6E656E74735C6D7266695C72EA
:100B50006164696F732F66616D696C79312F6D7295
:100B600066695F726164696F2E6300000248006805
:100B700000F01000704700000C08014010200149EF
:100B80000860704710080140102001490860704754
:100B90001408014010B5044600BF042C05DB0A4AC6
:100BA0004FF49C7109A000F0F3FF00BF00F05EFA63
:100BB0001548015D0A2001F0D1FB14480078032894
:100BC00001D100F075FA10BD5C3600082E2E5C2EA7
:100BD0002E5C2E2E5C2E2E5C2E2E5C436F6D706F65
:100BE0006E656E74735C6D7266695C726164696F68
:100BF000732F636F6D6D6F6E2F6D7266695F6631F7
:100C000066322E6300000000BB3500080A00002099
:100C100010B5044600BF032C05DB0A4A40F253110D
:100C200009A000F0B5FF00BF00F020FA1548015DF3
:100C30003E2001F093FB14480078032801D100F016
:100C400037FA10BD733600082E2E5C2E2E5C2E2E29
:100C50005C2E2E5C2E2E5C436F6D706F6E656E7415
:100C6000735C6D7266695C726164696F732F636F28
:100C70006D6D6F6E2F6D7266695F663166322E63C1
:100C800000000000BF3500080A00002010B504462F
:100C900020780A490978884201D1012010BD2178C5
:100CA000092001F05BFB002004E0215C044A1154A0
:100CB000411CC8B20428F8DB0020EFE779350008B2
:100CC0001400002010B500BFEFF3108000F0010405
:100CD00072B672B600BF08480078012807D0FFF747
:100CE000D1FE392001F096FA01200349087000BFB7
:100CF00004B962B600BF10BD0A0000202DE9F04122
:100D000007460C464FF0000800BF564800780128FF
:100D100005D1554A40F2DD2154A000F039FF00BF53
:100D200000F0A4F93846FFF7CBFD7CB9352001F07F
:100D300071FA322000F04CFE5B4A4FF48871F720C4
:100D400000F007F90220594908607BE000BF012C40
:100D500005D0454A40F21B3144A000F019FF00BF06
:100D600004251B21022001F0F9FA00BF342001F014
:100D700051FA46F2A81000F0D9F840F2145600BF1C
:100D8000382001F0ABFA00F0500000B107E040203D
:100D900000F0CCF8A6F1400006B2002EF0DC00BF57
:100DA0000220424908600120414908703F48143838
:100DB000006840F002003D4914390860052000F049
:100DC00007FE352001F026FA44F6206000F0AEF868
:100DD00044F6206000F0AAF83548007860B9022097
:100DE00032490860322000F0F3FD324A4FF4887136
:100DF000F72000F0AEF824E02C481438006820F00A
:100E000002002A4914390860002029490870362058
:100E100001F000FA00BF3D2001F0FCF900F0F00005
:100E20000028F8D13A2001F0F5F93DB100F00AF9B7
:100E30003846FFF745FD681EC5B297E74FF0010839
:100E400000BF00BF3B2001F0E5F90621022001F0C0
:100E500085FA04480078032801D100F029F94046BA
:100E6000BDE8F0810A000020CC3500082E2E5C2E53
:100E70002E5C2E2E5C2E2E5C2E2E5C436F6D706FC2
:100E80006E656E74735C6D7266695C726164696FC5
:100E9000732F66616D696C79312F6D7266695F724F
:100EA0006164696F2E630000E923000814040140A7
:100EB00018000020D923000810B50F480078012839
:100EC00000D010BDFFF760FE00BF062001F049F81A
:100ED0000028FAD1FFF752FE022007490870362099
:100EE00001F098F900BF3D2001F094F900F0F00006
:100EF0000028F8D100BFE4E70A000020014680295D
:100F000007DBA1F5807000EBD0735B104A3B1AB28F
:100F100005E0084601EBD0735B104A3B1AB212F1B0
:100F2000800F01DA6FF07F0250B2704770B504464F
:100F30002046E11704EB1171C1F30F1544B100BF56
:100F40001020FFF75BF92800A5F101018DB2F7D160
:100F500070BD2DE9F04707460C46154600261FE0F8
:100F600040F2712900BF00BFEFF3108000F00108CC
:100F700072B672B600BF1020FFF740F900BFB8F19B
:100F8000000F00D162B600BF0DB1A847064636B9C2
:100F90005FEA0900A9F101011FFA81F9E3D17F1E7F
:100FA0000EB9002FDCD12046E11704EB1171C1F31B
:100FB0000F19EEB9E4B100BF00BFEFF3108000F0ED
:100FC000010872B672B600BF1020FFF717F900BF14
:100FD000B8F1000F00D162B600BF0DB1A8470646B8
:100FE00036B95FEA0900A9F101011FFA81F9E3D1DD
:100FF0003046BDE8F087000070B504462046E11792
:1010000004EB1171C1F30F16CCB100BF00BFEFF3B9
:10101000108000F0010572B672B600BF1020FFF715
:10102000EDF800BF05B962B600BF0548007800B111
:1010300004E03000A6F101018EB2E7D100BF70BD1F
:101040000C00002070B5FFF749FC00F00F00451CB4
:10105000002405E004480088FFF768FF601CC4B264
:10106000AC42F7DB70BD00001000002010B50E4848
:101070000078012805D00D48006820F002000B49D7
:101080000860362001F0C6F800BF3D2001F0C2F82C
:1010900000F0F0000028F8D13A2001F0BBF802205F
:1010A00002491431086010BD120000200004014004
:1010B00010B5022008490860342001F0ABF8074859
:1010C0000078012807D004481438006840F0020076
:1010D00001491439086010BD1404014012000020B9
:1010E00038B50020009000BF49480078032805D09B
:1010F000484A40F20A4148A000F04AFD00BF3B20A8
:1011000001F0ECF8054600BF2C463B2001F0E6F864
:101110000546AC42F8D1002C79D00121684601F097
:1011200011F99DF80000C01C844208D19DF8000010
:10113000401C2E2803DC9DF800000B281DDA00BFA0
:10114000EFF3108000F0010572B672B600BF3620D2
:1011500001F060F800BF3D2001F05CF800F0F00005
:101160000028F8D13A2001F055F8342001F052F867
:1011700000BF05B962B600BF49E02E213548FFF730
:1011800012F89DF80000334908709DF800103148AE
:10119000401C01F0D7F802212E482E3001F0D2F881
:1011A0002D480078012805D02C48006820F0020066
:1011B0002A490860012028490870264890F82F0025
:1011C00000F08000B0B12348401CFFF723FC88B931
:1011D000204991F82E00FFF791FE1E4981F82E005C
:1011E000084690F82F0000F07F011A4880F82F1071
:1011F000FFF73AFC002018490870084600780128DB
:1012000005D01648006840F002001449086038BD57
:101210000A000020DA3500082E2E5C2E2E5C2E2EC1
:101220005C2E2E5C2E2E5C436F6D706F6E656E743F
:10123000735C6D7266695C726164696F732F66615D
:101240006D696C79312F6D7266695F726164696F67
:101250002E630000880000201200002000040140DE
:1012600070B5002100230F22C47804B3154C246804
:1012700004F4E064C4F5E064210AC1F10403CA4047
:10128000447804FA03F184781440214309010E4C98
:101290000678A155047804F01F050124AC400578B8
:1012A0006D11AD0005F1E025C5F8004109E00478B5
:1012B00004F01F050124AC40044D0678761145F872
:1012C000264070BD0CED00E000E400E080E100E0AD
:1012D00029B1064A52690243044B5A6104E0034AA9
:1012E00052698243014B5A6170470000001002406E
:1012F00029B1064AD2690243044BDA6104E0034A89
:10130000D2698243014BDA6170470000001002404D
:1013100029B1064A92690243044B9A6104E0034AE8
:1013200092698243014B9A617047000000100240AD
:1013300010B500F035F84FF4803000F0F3F800F00D
:1013400055F90446012C1ED1002000F0DFF80020E2
:1013500000F020F9A00200F011F94FF4E011200490
:1013600000F02AF9012000F021F900BF392000F037
:10137000A7F80028FAD0022000F02CF900BF00F0F6
:10138000BDF80828FBD1012000F0F2F800BF612071
:1013900000F096F80028FAD0042000F0E3FA10BD1F
:1013A0000F48006840F001000D4908600846406899
:1013B0000C4908400A494860084600680A49084044
:1013C000074908600846006820F480200860084645
:1013D000406820F4FE0048604FF41F0088607047AA
:1013E000001002400000FFF8FFFFF6FE30B50021BC
:1013F0000022002400232D4D6D6805F00C0121B161
:10140000042905D0082923D105E0294D056022E0F3
:10141000274D05601FE0254D6D6805F47012234DC2
:101420006D6805F48034022505EB92421CB9214D0C
:10143000554305600BE01D4D6D6805F400351DB189
:101440001C4D5543056002E0194D5543056002E00F
:10145000174D056000BF00BF144D6D6805F0F00129
:101460000909154D6B5C0568DD4045600F4D6D68E1
:1014700005F4E061090A104D6B5C4568DD4085604C
:101480000A4D6D6805F46051C90A0B4D6B5C4568E7
:10149000DD40C560054D6D6805F44041890B074D81
:1014A0006B5CC568B5FBF3F5056130BD001002400B
:1014B00000127A0000093D00BD36000884000020BB
:1014C00010B501460022002300204A11012A02D152
:1014D000094C236806E0022A02D1074C236A01E086
:1014E000054C636A01F01F02012494401C400CB1BA
:1014F000012000E0002010BD0010024002484068BA
:1015000000F00C007047000000100240014600206F
:10151000034A506820F0F000084350607047000014
:10152000001002401149096821F480310F4A11600E
:101530001146096821F480211160B0F5803F03D085
:10154000B0F5802F0ED106E00849096841F48031DA
:10155000064A116007E00549096841F4A021034AE1
:10156000116000E000BF00BF7047000000100240A3
:101570000149086070470000800442420146002093
:10158000034A506820F4E060084350607047000050
:101590000010024001460020034A506820F46050C9
:1015A00040EAC100506070470010024001490866DF
:1015B000704700000000424202460020044B586879
:1015C00020F47C1042EA01031843014B5860704735
:1015D0000010024001460020034A506820F003003A
:1015E00008435060704700000010024038B50020EA
:1015F00000900024002500BF3120FFF761FF054661
:101600000098401C00900098B0F5A06F01D0002D0C
:10161000F2D03120FFF754FF08B1012400E000248C
:10162000204638BD70B505460E48007888B9FFF7EA
:101630000FF8284601F0B2FB040001D0204670BD2F
:10164000FFF73AFC01F06CF90646FFF71FFBFEF7C7
:10165000A5FF01200349087001F056FA0446204610
:10166000EDE70000420000202DE9F04107460D465D
:1016700016462948007830B9384600F0D5FC10B934
:101680000220BDE8F081B81E07283FD2DFE800F055
:1016900015253E0A042B35003146284601F0CDF8C9
:1016A000044635E0012D00D02DB93146284601F021
:1016B000DCF8044600E002242AE0032D04D1304681
:1016C00001F08DFC044607E0022D04D1304601F004
:1016D00074FC044600E002241AE03146284601F07A
:1016E00036FC044614E0012D05D101F015F900681F
:1016F0003060002400E002240AE0012D04D101F052
:101700005DF93070002400E0022401E0022400BFF3
:1017100000BF2046B5E700004200002010B5044697
:10172000204601F075FA10BD2DE9FC5F8046894620
:1017300092461F46404601F0D1F804464FF0020B96
:10174000FEF76AFF06460020019034B101212046D1
:1017500001F062F85FEA000B02D05846BDE8FC9F3A
:10176000B9F1000F02D0BAF10A0F01DD5846F5E7D2
:101770003FB96378A07A5246494600F0E9FF054632
:1017800015E007F0010080B1B8F1FF0F0BD0A01CED
:1017900000906378A07A5246494600F0BBFF0546A8
:1017A0000120019003E00220D8E70220D6E70DB91E
:1017B0000320D3E7D4F80310C5F80310012128460D
:1017C00001F0EEFC8346BBF1000F01D1019808B98E
:1017D0005846C3E7032E05D0012E01D1FFF76CFB5D
:1017E000FFF78AF9FFF790F80A2000F0F1F8032ECE
:1017F00006D0012E02D1FFF765FA01E0FFF742F9AA
:1018000000BFEFF3108101F0010072B672B600BFA5
:10181000A17819B10021A1704FF00C0B00BF00B9E5
:1018200062B600BF584699E721B1028842F04002F3
:10183000028004E002884FF6BF731A4002807047AE
:1018400010B50022028802F441520B884C882343D1
:101850008C882343CC8823430C8923434C8923431E
:101860008C892343CC8923431A430280838B4FF214
:10187000FF74234083830B8A038210BD10B500F0F0
:1018800001F810BD0CB500200190009033480068AD
:1018900040F480303149086000BF3048006800F4EF
:1018A000003000900198401C0190009818B90198F0
:1018B000B0F5A06FF1D12948006800F4003010B1F4
:1018C0000120009001E0002000900098012843D101
:1018D0002348006840F0100021490860084600686D
:1018E00020F0030008600846006840F0020008602D
:1018F0001A484068194948600846406848600846E8
:10190000406840F4806048600846406820F47C10DD
:1019100048600846406840F4E8104860084600689F
:1019200040F08070086000BF0C48006800F0007054
:101930000028F9D00948406820F0030007494860B2
:101940000846406840F00200486000BF0348406815
:1019500000F00C000828F9D10CBD00000010024076
:1019600000200240042808D14FF0E021096941F02D
:1019700004014FF0E022116107E04FF0E021096916
:1019800021F004014FF0E0221161704710B56FF0B3
:101990000400FFF7E7FF0A4800680A49B0FBF1F0CE
:1019A000094908700846007800EB4001C1EBC010FF
:1019B0004FF6FF7101EAC0000449088010BD000025
:1019C0008000002000127A0006000020080000209D
:1019D0000146114A12884A434FF0E0235A6100221F
:1019E0009A611A46126942F001021A6100BF4FF073
:1019F000E022106900F001021AB100F48032002ADE
:101A0000F5D04FF0E022126922F001024FF0E023FE
:101A10001A6100229A6170470800002010B513482F
:101A2000006840F00100114908600846406810490C
:101A300008400E494860084600680E4908400B49B6
:101A400008600846006820F4802008600846406866
:101A500020F4FE0048604FF41F008860FFF70EFF7F
:101A60004FF000600449086010BD00000010024003
:101A70000000FFF8FFFFF6FE08ED00E021B18289CB
:101A800042F40052828104E082894DF6FF731A40CD
:101A90008281704702460020B1F5007F00D100BF6F
:101AA00013880B400BB1012000E0002070470000BC
:101AB0002DE9F04786B005460E460024A24600BF39
:101AC000A1460027B08900B100BF2F462C8A4CF6F2
:101AD000FF700440F08804432C82AC894EF6F3106A
:101AE0000440B08831890843718908430443AC81BC
:101AF000AC8A4FF6FF400440B0890443AC8201A891
:101B0000FFF774FC1F48874202D1DDF810A001E006
:101B1000DDF80CA0A88900F4004040B10AEBCA002F
:101B200000EB0A1031684900B0FBF1F807E00AEB5E
:101B3000CA0000EB0A1031688900B0FBF1F864209C
:101B4000B8FBF0F004012009642101FB1089A88989
:101B500000F4004040B1322000EBC900B0FBF1F0CE
:101B600000F00700044308E0322000EB0910642174
:101B7000B0FBF1F000F00F0004432C8106B0BDE88B
:101B8000F087000000380140C1F3080282807047EE
:101B90001CB506460C4615460820009000BF374885
:101BA000006840F400503549086000BF00BF084697
:101BB000006820F48070086000BF31A000F0AFF82A
:101BC000304600F0ACF830A000F0A9F8204600F054
:101BD0007DF82EA000F0AEF8284600F0ABF82CA05F
:101BE00000F0A8F819E00020019006E000BF00BF57
:101BF00000BF00BF0198401C019028480068642184
:101C0000B0FBF1F001998842F0D800BF1B48006892
:101C100080F480701949086000BF9DF80000411EE3
:101C2000C9B200910028DED100BF1448006820F43A
:101C300000501249086000BF0020019006E000BF7C
:101C400000BF00BF00BF0198401C0190134800680E
:101C50000A21B0FBF1F001998842F0D800BF10488A
:101C6000006800F4E0600F490843001D0C4908605B
:101C7000BFF3408F00BF00BFFEE700000C0C014027
:101C80004153534552543A002028000029000000D7
:101C90005245534554202E2E2E0000008000002077
:101CA0000CED00E00000FA0510B5044600BF8021ED
:101CB0000548FFF7EFFE0028F9D021460248FFF75C
:101CC00063FF204610BD00000038014070B5044697
:101CD00042F210750026002C03DA2D20FFF7E4FFF6
:101CE00064421CB93020FFF7DFFF17E014E0AC427C
:101CF00004DA76B13020FFF7D7FF0AE094FBF5F065
:101D00003030C6B23046FFF7CFFF94FBF5F005FB4D
:101D100010440A2095FBF0F5002DE8D170BD10B5F8
:101D2000044603E014F8010BFFF7BEFF20780028FB
:101D3000F8D110BD10B504462046FFF7F0FF02A011
:101D4000FFF7EDFF10BD00000D0A00000EB50121E8
:101D50000846FFF7DDFA01210846FEF7F3FB0220F3
:101D6000019000208DF808000C208DF8090001205A
:101D70008DF80A0001A8FEF79BFB0A48006820F0D6
:101D800002000849086007208DF8000000208DF847
:101D9000010001208DF802008DF803006846FFF76E
:101DA0005FFA0EBD0004014002480088C0F38010B5
:101DB000704700000030014000BF0548008900F076
:101DC00001000028F9D002488089C0B270470000A5
:101DD0000030014000BF0348008900F08000002867
:101DE000F9D170470030014001E00949898908496B
:101DF000098901F001010029F7D100BF04490989CF
:101E000001F002010029F9D00149888170470000E2
:101E10000030014002E008C8121F08C1002AFAD1B0
:101E200070477047002001E001C1121F002AFBD15A
:101E30007047000070B50546174C01214020FFF7A0
:101E400047FAFEF7F1FA34F8020BFEF7DFFA34F83E
:101E5000020BFEF7DBFA34F8020BFEF7D7FA34F880
:101E6000020BFEF7D3FA34F8020BFEF7CFFA34F880
:101E7000020BFEF7CBFAFEF7D1FA86B20021402022
:101E8000FFF726FA2A4601210520FFF7EDFBEE7049
:101E9000300AA87070BD0000E8F7FF1FF8B50446CF
:101EA000E07A00F03F050627042220480168E01D83
:101EB000FEF784F910B900202070F8BDE07A00F038
:101EC000400010B100202070F7E77DB1BD420DDC6D
:101ED000681E174A52F82010A01C88470646012E9B
:101EE00001D1207001E000202070E6E73F2D06D0F0
:101EF000202D01DB3E2D02DD00202070DDE769464C
:101F0000A01C00F077FD68B101202070094800682E
:101F100050B19DF8000007490968884720B10020AA
:101F20002070CAE70020207000BFC6E748000020EC
:101F30009C3600085000002030B50346D8B200F0AF
:101F400027F8C3F3C00100EB81045807C50E0F2129
:101F5000A94020688843C3F30321A94008432060B7
:101F600030BD10B50346184600F012F884681846D4
:101F700000F006F804400CB1012010BD0020FCE781
:101F8000014601F00F020120904080B2704700002E
:101F9000014601F0F000024A02EB80107047000099
:101FA0000008014070B50446002620780B38082848
:101FB00001D101212173207B012804D1204601F0A9
:101FC00039F9054600E000BF00BF304670BD10B5CE
:101FD0000446207B012803D1204601F0DCF900E013
:101FE00000BF00BF10BD000038B505460D4C0020F5
:101FF000A872022028702078E8722078401C207097
:1020000002E02078401C207020780028F9D0207849
:10201000FF28F6D02078694600F0E4F80028F0D1D7
:1020200038BD00001D0000200146052902D00A2904
:1020300003D100E000BF012001E0002000BF00BF8D
:102040007047000008B509E0012001F073FA022092
:1020500001F070FA4FF47A70FEF794FA4348FFF7F4
:102060005DFB0028F0D14248006800F4005010B138
:10207000022001F05FFA3E48006800F4807010B161
:10208000012001F057FA002204210320FFF7ECFAA7
:102090006AE000253648001F0068012121EA10305F
:1020A00018B1FA20FEF76EFA012532480088401C6C
:1020B000304908800846008847F6FF71884203D1FE
:1020C00000202C4908800125002D42D00022052146
:1020D0000320FFF7C9FA28480078401CC0B22649FF
:1020E00008708DF80100012D01D1012000E00220CF
:1020F0008DF800004FF0000822E00027002612E0D3
:1021000001230222694619480078FFF70DFB0400FD
:1021100003D1012001F00EFA07E00C2C01D1781C4C
:10212000C7B2701CC6B2022EEADB00BF022F05D177
:10213000022001F0FFF94FF0010801E04FF0010823
:10214000B8F1000FD9D0002204210320FFF78CFA48
:1021500000BF0A48007838B1012001F0EBF90748C8
:102160000078401E0549087093E700000100002038
:102170000C0C0140040000200000002002000020A0
:1021800008B5FEF73DF86846FFF754FE6A460021A1
:102190000520FFF769FA09E0012001F0CBF90220E0
:1021A00001F0C8F94FF47A70FEF7ECF90B48FFF72D
:1021B00039FA0028F0D10A48006800F4005010B93C
:1021C000022001F0B7F90648006800F4807010B9E9
:1021D000012001F0AFF9FFF735FF000011320008D0
:1021E0000C0C014010B503460C46094A00210BE0D7
:1021F0001078022805D1D07A984202D121700120AE
:1022000010BD481CC1B20C320329F1DB0020F7E7F6
:102210001E00002070B5044600BFFFF7C5FD20B9C1
:10222000104AE32110A0FFF7B3FC00BF00BF302C21
:1022300001DB3D2C04DD0B4AE4210BA0FFF7A8FCD9
:1022400000BFFEF79BFCFEF79FFC2046FFF7CCFD8E
:10225000FFF7C0FDFFF7B0FD0546FEF78FFC2846EF
:1022600070BD00000C3600082E2E5C2E2E5C2E2E2B
:102270005C2E2E5C2E2E5C436F6D706F6E656E74DF
:10228000735C6D7266695C726164696F732F6661FD
:102290006D696C79312F6D7266695F7370692E6339
:1022A0000000000010B5FEF769FC41F20430FFF7B2
:1022B00043FE41F60530FFF73FFE41F60730FFF7DA
:1022C0003BFE40F20640FFF737FEFEF757FC0248A0
:1022D000FDF7FEFF10BD00000030014070B5044660
:1022E00000BF3B2C05DD074A4FF4897106A0FFF7BC
:1022F0004FFC00BF44F0C000DB2101F0D7F80546D9
:10230000284670BD1D3600082E2E5C2E2E5C2E2E0B
:102310005C2E2E5C2E2E5C436F6D706F6E656E743E
:10232000735C6D7266695C726164696F732F66615C
:102330006D696C79312F6D7266695F7370692E6398
:102340000000000070B504460D462A462146FF20D5
:1023500001F03CF80646304670BD000070B50446FA
:102360000D4600BF2E2C07DD3E2C05D0054A40F25D
:10237000311105A0FFF70CFC00BF2946204601F0F3
:1023800095F870BD2C3600082E2E5C2E2E5C2E2E5D
:102390005C2E2E5C2E2E5C436F6D706F6E656E74BE
:1023A000735C6D7266695C726164696F732F6661DC
:1023B0006D696C79312F6D7266695F7370692E6318
:1023C0000000000070B504460D462A4621467F20D5
:1023D00000F0FCFF70BD000002480068C0F3400040
:1023E00070470000080C014002480068C0F340003C
:1023F000704700001404014010B564210348FDF744
:10240000D2FE64210248FDF7CEFE10BDB8000020C8
:102410001C01002070B502460B46012A02D110486B
:10242000022400E070BD00BFEFF3108606F0010546
:1024300072B672B600BF00210AE006782EB1467867
:102440009E4202DD4678761E46704E1CF1B2323056
:10245000A142F2DB00BF05B962B600BF00BFE1E7F1
:10246000B80000202DE9F74F86B00D464FF0000B65
:10247000D84600200290019000900698012805D1CE
:10248000434C022004900320059003E0002009B093
:10249000BDE8F08F287801280ED1287900F01EFAC7
:1024A0008046B8F1000F01D10020F0E798F80970DC
:1024B00008F10300019005E0287808B92F7901E0C0
:1024C0000020E4E70898012800D100E00320064638
:1024D0004FF0000956E000BFEFF3108000F0010A52
:1024E00072B672B600BF2078B0423FD1042020708F
:1024F00000BFBAF1000F00D162B600BFE07A00F071
:102500003F00B84230D12878012807D13F2F03D1AE
:1025100008F10300029001E0E01D02900422DDE9D1
:102520000110FDF74BFEC0B20390287858B1009817
:1025300008B9039838B10098A0B10422E11D0098B1
:10254000FDF73CFE70B961780598814208DABBF16D
:10255000000F01D08BF8006060780590A3460CE076
:10256000267009E0267007E0267005E000BFBAF18A
:10257000000F00D162B600BF00BF09F1010000F0FA
:10258000FF09323404988145A5DB58467FE70000F7
:10259000B80000202DE9F04F074600250026AA4686
:1025A000012F03D1204C4FF0020902E01F4C4FF0E5
:1025B000020909F1010000F0FF0B4FF000081EE0D6
:1025C000207880B1012F14D10AF1010000F0FF0A38
:1025D0002078042800D10DE06078584509DA2546B6
:1025E00094F801B005E0022F02D12046BDE8F08F3B
:1025F000264600BF08F1010000F0FF083234C8454C
:10260000DEDB56B90DB90020F0E72E46717838466A
:10261000FFF700FF86F8018004E00AF10100C0B274
:10262000824670703046E1E7B80000201C010020AF
:102630002DE9F84307468846354D002000900026D6
:1026400025E0454520D0287802281DD1687A3D280C
:102650001ADC012F0CD1687A2D49491F89788842EC
:1026600012DD0120697AC1F13D010DF801000BE096
:10267000042208F10301E81CFDF7A0FD20B90121A7
:10268000687A20380DF80010701CC6B20C35022E86
:10269000D7DB002400260EE01DF8060048B9022F03
:1026A00003D106F12000C4B202E0C6F13D00C4B27D
:1026B00003E0701CC6B2022EEEDB00BF022F0FD16A
:1026C0001348401F8078A04208DB1148401FC078A3
:1026D000A04218DA0E48401FC47014E0002412E033
:1026E0000B48401FC078A0420CDC0948401F80788E
:1026F000A04208D10648401F8078401E0449491F67
:10270000887000E0002488F809402046BDE8F8837E
:102710001E0000202DE9F04705460E461746984654
:10272000DDF8209043463A463146284600F010F83E
:10273000040001D1BDE8F087607B89F8000000BF8C
:10274000207B40F08001217300BF2046F2E70000AB
:102750002DE9F0410546884616461F460220FFF740
:1027600019FF040001D1BDE8F08100BF06F10B00A4
:10277000A07000BF00BFE07A20F04000E07200BF10
:1027800000BFE07A20F03F002843E07200BF00BFA6
:10279000607B1E480078607300BF00BF1B48007854
:1027A000401CC0B2194908700028F7D000BF207B38
:1027B00020F04001164800780143217300BF00BF9C
:1027C000207B20F007013943217300BF00BF207B2D
:1027D00020F08001217300BF00BF207B20F00801A2
:1027E000217300BF00BFE07A20F08000E07200BFDC
:1027F0003246414604F10E00FDF7AEFC054909687A
:102800000968C4F807102046ADE700004400002026
:102810004C00002048000020024609B9507A00E030
:10282000907A03460BB1107808B902207047202B2C
:1028300001DA0220FAE70020F8E72DE9F04104462A
:102840000D462E780E2C02D00220BDE8F081FF2E1E
:1028500004D0304600F042F8070001D10220F4E72E
:10286000384600F033F80020EFE770B504460D4617
:102870000226012C05D100F053F8006828600026DC
:1028800005E024B9284600F0B1FC00B1002630462E
:1028900070BD000010B504460020084908700848C3
:1028A000046000F03DF80749086000BFFEF716F825
:1028B000054908700028F9D010BD00004D00002027
:1028C000500000204800002044000020002101703A
:1028D00070477047004870477935000838B504469E
:1028E00069462046FFF77EFC054685B19DF800004D
:1028F00000EB4001074810F82100022807D19DF89D
:10290000000000EB4001034800EB810038BD0020CF
:10291000FCE700001E00002000487047B9360008A0
:102920000348007808B1034870470348FCE70000FB
:102930005C00002058000020B436000801480078F0
:10294000704700004C00002010B500240AE004EBA2
:1029500044010E4810F82100022800D100E003E0F5
:10296000601CC4B2032CF2DB00BF032C01D1002099
:1029700010BD04EB4402054901EB8200FFF734FB74
:1029800004EB4401014800EB8100F1E71E00002048
:1029900070B505460C461646324629462046FDF7D8
:1029A000DBFB022E02D0042E06D102E0208820801C
:1029B00002E02068206000BF00BF70BD01480078C1
:1029C00070470000B836000806480021016006483C
:1029D000007830B9054806490968016001200249BC
:1029E00008707047540000205C0000205800002050
:1029F000B43600082DE9F04705460F461F4C687AAB
:102A000000F03F064FF0000833E0207802282BD179
:102A1000607AB04228D13F2E05D00422691DE01C07
:102A2000FDF7CCFBF8B94FF00109E07A38703F2E82
:102A300014D0A87A00F0800020B1A17A284600F0D6
:102A400041FB0BE0A87A00F0080038B1A178E87AE1
:102A5000814201D10020A0704FF00009FDF724FF52
:102A60004846BDE8F08700BF08F1010000F0FF080C
:102A70000C34B8F1030FC8DB0020F2E71E00002081
:102A80002DE9F04105460E460C4C002711E0207858
:102A900002280BD104222946E01CFDF78FFB28B940
:102AA000A07AB04202D12046BDE8F081781CC7B2BE
:102AB0000C34022FEBDB0020F6E700001E000020A4
:102AC0002DE9F04704460D4616461F464FF0020812
:102AD00004F10C00805D00F0800090B104F10C0066
:102AE000C05DA8420BD1FFF71BFF81460422494677
:102AF000601CFDF763FB10B94FF0000801E04FF0D8
:102B000001084046BDE8F087F0B587B0FDF784FDC9
:102B100004460627FFF7DEFE019005A80290082074
:102B20008DF80C0003208DF80D0004220DF1160124
:102B3000294800F0ECF901208DF8140027480078AE
:102B40008DF8150002208DF81A00FFF737FF8DF879
:102B50001B0001AA03210220FEF786FD03208DF849
:102B60000D0005A8029004A80190032C05D0012CAB
:102B700001D1FEF7A1F9FDF7BFFFFDF7C5FE642007
:102B8000FEF726FF032C06D0012C02D1FEF79AF89F
:102B900001E0FDF777FF01AA02210846FEF764FD78
:102BA000B0B99DF8140020F08006012E01D0062E49
:102BB0000DD1DDF81650284600F012FB04A800F0F5
:102BC00009FB06480078401C04490870002700BF34
:102BD000384607B0F0BD000060000020680000200B
:102BE00010B504460648006810B906480449086054
:102BF00005480460FDF772FE0449087010BD00002E
:102C0000600000200807060564000020680000201E
:102C10002DE9F04188B00646FFF796FE0446002CE9
:102C200071D021460120FFF703FD30B92046FFF7A0
:102C30004DFE032008B0BDE8F081FFF74BFE0068B1
:102C4000049004A8019005A8029009208DF80C00BA
:102C500002208DF80D0004220DF116013C4800F011
:102C600056F9607A8DF81A003A4800788DF8150008
:102C7000FFF764FE8DF81B0001208DF81400FFF7AC
:102C80009DFE8DF81C0001AA03210220FEF7ECFC3A
:102C90005FEA000804D02046FFF718FE4046C9E767
:102CA000FDF7BAFC054602208DF80D0005A802903C
:102CB000E01C0190032D05D0012D01D1FEF7FCF899
:102CC000FDF71AFFFDF720FE6420FEF781FE032DBD
:102CD00006D0012D02D1FDF7F5FF01E0FDF7D2FE90
:102CE00001AA02210846FEF7BFFC70B99DF8140046
:102CF00020F08007012F07D0032F05D02046FFF7D3
:102D0000E5FD052096E721E004E02046FFF7DEFD23
:102D100001208FE7022020709DF81600A072E07A53
:102D200030709DF81700402802D10120607001E04A
:102D30000320607007480078401C06490870084668
:102D4000007808B901200870002073E7032071E7BC
:102D50006C0000207400002010B50848006810B90D
:102D600007480649086000BFFDF7B8FD054908702F
:102D70000028F9D004480021018010BD6C0000201B
:102D800004030201740000207100002010B5FDF75B
:102D9000A5FD0149087010BD7C00002010B5044657
:102DA00028211E48FDF7FFF903201C49491E4870E1
:102DB0003D2088702020C87001200871FFF704FEB4
:102DC0002046FFF767FDFFF717FBFFF782FD00F0D6
:102DD00027F82046FFF704FFFFF7D8FFFFF7BCFFF7
:102DE00000F06EF90D48401E407FA0B902210B484B
:102DF000401E4177032181773F2180F8261080F81B
:102E00002710FF2180F82810FFF764FD01460348D2
:102E1000401E09680162002010BD00001A00002059
:102E200010B5FDF75BFD0149087010BD7D00002065
:102E3000014600207047000070B5044600250123BC
:102E40000022064801782046FFF73AFE060002D12C
:102E5000FDF72AFD0125284670BD0000680000200E
:102E600070B5054601230022084801782846FFF77F
:102E700027FE060003D1FDF717FD012403E02846D5
:102E8000FFF790F80446204670BD00007400002053
:102E90002DE9F0410546012300220E48017828461D
:102EA000FFF70EFE060003D1FDF7FEFC01240EE045
:102EB000FFF736FD074604223946681CFDF77EF908
:102EC00020B9284600F066FA002400E002242046DB
:102ED000BDE8F0817C00002070B50546012300228A
:102EE000084801782846FFF7EBFD06461EB9FDF7B6
:102EF000DBFC012403E02846FFF769F800242046A4
:102F000070BD00007D0000200146002070472DE9C3
:102F1000FC4104460E461746012F04D0022F04D070
:102F2000042F0AD105E0254609E02088019001AD73
:102F300005E0206800906D4601E0254600BF00BF17
:102F40003A4629463046FDF707F9BDE8FC812DE9F0
:102F5000F04104460D464FF00008042C04D1FDF763
:102F600091FDFDF7AFFE26E0052C02D1FDF7A4FF91
:102F700021E0062C0DD12E463078FFF7AFFC074636
:102F800017B90220BDE8F081B7F80700A6F80100E4
:102F900011E0072C03D1FDF7F3FC28700BE0082C9F
:102FA00002D1FDF7A9FD06E0092C02D1FDF76AFD6B
:102FB00001E04FF002084046E4E73EB50446002039
:102FC0008DF80400607A8DF8080004F10A00009082
:102FD000821E01A8D4E9003100F025F83EBD70B58D
:102FE0000446607A032804D0052803D0062804D1BB
:102FF00001E000BF00BF012601E0032600BF00BFC3
:10300000227A607A33466168FFF7A2FB050008D098
:1030100021680968C5F803100121284600F0C0F8AE
:1030200070BD0320FCE72DE9F05F05468946164692
:103030009846DDF828A000BF002030704FF0010B4B
:10304000012229461046FFF70DFA0446002C32D023
:1030500000272878012807D12879FFF73FFC074689
:1030600017B90220BDE8F09FA0780B383070327895
:1030700004F10E014846FDF76FF837B194F83000BF
:1030800040B2F87194F831103972B8F1000F03D0E2
:10309000D4F80700C8F80000BAF1000F04D0207B74
:1030A00000F007008AF8000061780120FFF7B2F90C
:1030B00000202070D6E7BBF1000FBDD00420D1E77F
:1030C0007047000070B58CB004460D46E67A00BF2C
:1030D0009DF80A0020F030002E49097808438DF849
:1030E0000A0000BF00BF9DF80A0020F040002A49F6
:1030F000097808438DF80A0000BFD4F80500CDF820
:103100000100264800680068CDF8050000BF9DF862
:10311000090020F03F0028438DF8090000BF00BFE0
:103120000B208DF8000000BF00BF9DF80B008DF84C
:103130000B6000BF00BF9DF80A0020F00700C01C14
:103140008DF80A0000BF00BF9DF80A0040F008019A
:103150008DF80A1000BF00BF9DF80A0020F0800023
:103160008DF80A0000BF00BF9DF8090020F0800024
:103170008DF8090000BF00BF9DF8090020F0400055
:103180008DF8090000BF00216846FDF7B7FD0CB0BF
:1031900070BD00004D0000204C00002048000020C1
:1031A00070B504460E4600BF207B20F03001084871
:1031B00000780143217300BF3146A01CFDF79EFD3E
:1031C00008B9002500E0092500202070284670BDC0
:1031D0004D000020014902680A6070475400002039
:1031E00008B10149086070476C00002001460020CA
:1031F000054A127832B9054A0B6813600122024B66
:103200001A700120704700005C0000205800002068
:10321000014606480078814206D105480078401CE6
:10322000034A1070002070470120FCE701000020D5
:10323000020000202DE9FC41044620780B380828C4
:1032400008DDFFF7BBFB0146207D814202D0022052
:10325000BDE8FC810422694604F10E00FFF798FBEB
:10326000484900980968884201D00220F0E7A77C0D
:103270003946601DFFF704FC050023D081208DF83E
:103280000400607B8DF80500687A8DF80600FFF772
:1032900055FB8DF80700A07A00F00700C0F103008D
:1032A000C3B2042201A90220FFF752FA060007D098
:1032B000D4F80510C6F8031000213046FFF770FF60
:1032C0000120C5E73048007808B90220C0E7FFF7C1
:1032D0003BFB0546002D53D0D4F80500C5F803008C
:1032E00029460220FFF7A4F920B92846FFF7EEFA95
:1032F0000120ADE725480078022804D12846FFF7D1
:10330000E5FA0120A4E7EA7A20490878411C1F4B1E
:1033100019701F490A54AF7202202870E07C4028BF
:1033200002D10120687001E003206870687A8DF88E
:103330000600FFF703FB8DF8070081208DF80400DD
:10334000607B8DF80500A07A00F00700C0F1030053
:10335000C3B2042201A90220FFF7FAF906000CD03B
:10336000D4F80510C6F8031000213046FFF718FF07
:1033700010B12846FFF7AAFA02E02846FFF7A6FA9E
:10338000012065E76C000020700000207300002021
:1033900071000020704770B5044620780B38C2B227
:1033A000032304F10C010120FFF7D2F905000BD033
:1033B000D4F80510C5F80310A87B40F08001A9736C
:1033C00000212846FFF7ECFE70BD00002DE9F0411A
:1033D00006460D461446002700BFFEF7E5FC28B957
:1033E000224A4FF4E77122A0FEF7D2FB00BF00BFD4
:1033F0002CB91E4A40F2CF111DA0FEF7C9FB00BF39
:1034000000BF06F0400028B9184A4FF4E87118A030
:10341000FEF7BEFB00BFFDF7B1FBFDF7B5FB00BF3C
:103420003046FEF7E1FCFEF7D5FC00BF2878FEF73A
:10343000DBFC601EC4B2FEF7CDFC06F0800010B1CC
:10344000FEF7BAFC28706D1CFDF790FB18B1FDF774
:103450009BFB012701E0002CE8D100BF002CDFD14D
:10346000FDF78CFB3846BDE8F081000049360008C6
:103470002E2E5C2E2E5C2E2E5C2E2E5C2E2E5C4371
:103480006F6D706F6E656E74735C6D7266695C7281
:103490006164696F732F66616D696C79312F6D722C
:1034A00066695F7370692E630000000070B50546A1
:1034B0000C4600BFFEF778FC28B90E4A4FF4A971FC
:1034C0000DA0FEF765FB00BFFDF758FBFDF75CFBA9
:1034D0002846FEF789FCFEF77DFC2046FEF784FCBB
:1034E000FEF778FCFEF768FC0646FDF747FB304622
:1034F00070BD00003C3600082E2E5C2E2E5C2E2E59
:103500005C2E2E5C2E2E5C436F6D706F6E656E743C
:10351000735C6D7266695C726164696F732F66615A
:103520006D696C79312F6D7266695F7370692E6396
:1035300000000000012807D100BF0949096881F493
:103540008071074A116009E0022807D100BF0449D1
:10355000096881F40051024A116000BF7047000001
:103560000C0C01404253505F496E69740042535045
:103570005F496E697453504900FFFFFFFF02061751
:103580003C1818062D080503070B0C0C000D100E37
:10359000B10F3B10F611831213137214F81515199D
:1035A0001D1A1C1BC71C401DB021B6221023EA2483
:1035B0002A2500261F2C882D312E091432506E84A6
:1035C000C8C04D5246495F496E6974004D52464924
:1035D0005F5472616E736D6974004D7266695F53FA
:1035E000796E6350696E5278497372004D52464944
:1035F0005F52784F6E004D5246495F527849646C75
:1036000065004D5246495F52737369006D72666979
:10361000537069436D645374726F6265006D7266B6
:103620006953706952656164526567006D726669BD
:103630005370695772697465526567007370695297
:103640006567416363657373007370694275727374
:10365000744669666F416363657373004D524649F2
:103660005F5365744C6F676963616C4368616E6E2C
:10367000656C004D5246495F5365745246507772EF
:10368000004D5246495F456E61626C6552784164F7
:10369000647246696C74657200000000D92E0008DF
:1036A000612E0008392E0008092F0008312E00086D
:1036B000912E000879563412020101010000000029
:1036C00000010203040102030406070809000000C8
:1036D000F03600080000002088000000141E0008DA
:1036E0007837000888000020F8040000241E000835
:1036F00000000000000000000000000000000000CA
:1037000000000000FF0000000001000000000000B9
:1037100000000000000000000000000000000000A9
:103720000000000000000000000000000000000099
:103730000000000000000000000000000000000089
:103740000000000000000000000000000000000079
:103750000000000000000000000000000000000069
:103760000000000000000000000000000000000059
:0837700000A24A04020406084D
:0400000508000121CD
:00000001FF
